:020000040800F2
:10000000E0F50120D50300084D4C0008894A00089E
:10001000494C0008E11F0008DD76000800000000E0
:1000200000000000000000000000000015030008B0
:10003000512100080000000071030008E74F00088C
:10004000F9030008F9030008F9030008A54F0008A8
:10005000F9030008F9030008F9030008F903000890
:10006000F9030008F9030008F9030008F903000880
:10007000F9030008F9030008F9030008F903000870
:10008000F9030008F9030008F9030008F903000860
:10009000F9030008F9030008F9030008F903000850
:1000A000F9030008F9030008F9030008F903000840
:1000B000F9030008F9030008F9030008F903000830
:1000C000F9030008F9030008F9030008F903000820
:1000D000F90300081D540008F9030008F90300089B
:1000E000F9030008254F0008F9030008F903000888
:1000F000F9030008F9030008F9030008F9030008F0
:10010000F9030008F9030008F9030008F9030008DF
:10011000F9030008F903000811500008F90300086A
:10012000F9030008F9030008F9030008F9030008BF
:10013000F9030008F9030008F9030008F9030008AF
:10014000F9030008F9030008F9030008514C0008FE
:10015000F9030008F9030008F9030008F90300088F
:10016000F9030008F9030008F9030008F90300087F
:10017000F9030008F9030008F90300080000000073
:10018000F9030008F903000800F002F800F0B2F8E3
:100190000AA090E8000C82448344AAF10107DA45E2
:1001A00001D100F0A7F8AFF2090EBAE80F0013F082
:1001B000010F18BFFB1A43F001031847AC190500E3
:1001C000CC1905000A444FF0000C10F8013B13F065
:1001D000070408BF10F8014B1D1108BF10F8015BA0
:1001E000641E05D010F8016B641E01F8016BF9D193
:1001F00013F0080F1EBF10F8014BAD1C0C1B09D1EA
:100200006D1E58BF01F801CBFAD505E014F8016B5B
:1002100001F8016B6D1EF9D59142D6D370470000ED
:100220000023002400250026103A28BF78C1FBD8FF
:10023000520728BF30C148BF0B6070476E2900F0DD
:100240005D85702900F08B8266293AF0E087652988
:100250003AF0DD8767293AF0DA8761293AF0D987E1
:1002600003681B0A28BF41F08001692900F0BE81A4
:10027000642900F0BB81752900F0B8816F2900F076
:100280001686782900F05782E92900F0EB81E429ED
:1002900000F0E881F52900F0E581EF2900F01386F0
:1002A000F82900F056820368DB0928BF41F080017D
:1002B000632900F05E85732900F06385E32901F06E
:1002C000A581F32901F0AA81002070471FB53AF0FB
:1002D00099FF01F0F9F90400002000213AF03EFEF8
:1002E000401C6060002000213AF022FEE0601FBD4B
:1002F00010B510BD01F0BAF91146FFF7E7FF32F073
:1003000071FA01F097FA03B4FFF7F2FF03BC09F0AA
:1003100037FB00002C4B19680868B0E8F04F80F3F9
:100320000988BFF36F8F4FF0000080F3118870478A
:100330000000000008480068006880F308884FF05B
:10034000000080F3148862B661B6BFF34F8FBFF32D
:100350006F8F00DF00BF00BF08ED00E0DFF80C008A
:10036000016841F470010160704700BF88ED00E052
:10037000EFF30980BFF36F8F134B1A681EF0100F55
:1003800008BF20ED108A20E9F04F106009B44FF04B
:10039000500080F31188BFF34F8FBFF36F8F39F098
:1003A0001BFE4FF0000080F3118809BC1968086833
:1003B000B0E8F04F1EF0100F08BFB0EC108A80F3C9
:1003C0000988BFF36F8F7047B0000020EFF30580FE
:1003D000704700000C48016841F4700101600B484F
:1003E00080470B480047FEE7FEE7FEE7FEE7FEE733
:1003F000FEE7FEE7FEE7FEE7FEE7000005480649E8
:10040000044A064B7047000088ED00E0FD4F0008ED
:1004100089010008E0E50120E0F50120E0E5012088
:10042000704753EA020C00F069802DE9F04B4FF061
:100430000006002B1FBFB3FA83F503FA05F424FA74
:1004400005F65E4012BF1643B2FA82F502FA05F4D1
:10045000C5F120051EBF22FA05FC44EA0C04203534
:1004600056EA044C4FEA144418BF641C4FF00008CD
:100470004FF00009904271EB030C39D3002919BFEA
:10048000B1FA81F701FA07F6B0FA80F700FA07F639
:10049000C7F120071EBF20FA07FC46EA0C062037EA
:1004A000B6FBF4FCA7EB0507103F07F01F0BCBF1E1
:1004B00020060CFA0BFB2CFA06F644BFB3460026C6
:1004C000202FA4BF5E464FF0000B5BEA060C08BF6E
:1004D0004FF0010B19EB0B09ABFB027C48EB060854
:1004E000C01B06FB02CC0BFB03CC71EB0C01C1E77C
:1004F0000B46024641464846BDE8F08B13B54FF027
:1005000000004FF00001AFF30080BDE81C407047D1
:100510001CB50C46064B7B4469460090204600F013
:1005200006FC04460020694600F014FC20461CBD71
:100530003B0800000FB4044910B503AA029800F06C
:1005400025FC10BC5DF814FB5400002070B5044677
:1005500085690068C10601D5302600E02026C00765
:1005600007D070BDD4E9012130469047206A401C75
:1005700020626D1EF6D570BD70B5044685690078A1
:10058000C00707D170BDD4E9012120209047206A1F
:10059000401C20626D1EF6D570BD70B50C46054638
:1005A000012A05D02878800600D5EA69002302E0F8
:1005B000012305E05B1C934202D2E05C0028F9D1E4
:1005C000A869E618C01AA861286A18442862284653
:1005D000FFF7BCFF04E0D5E9012114F8010B9047B7
:1005E000B442F8D32846FFF7C7FF70BD2DE9F041AC
:1005F0000646002410687529314616A510D000F073
:1006000012FB002802DA404213A507E031688A078E
:1006100001D512A502E0490704D511A5012401E086
:1006200000F00AFB00210A2206F1240709E0B0FBD2
:10063000F2FCB0FBF2F302FB1C0030307854184699
:10064000491C0028F3D123462A463046BDE8F04134
:1006500000F0FBBA000000002D0000002B0000009D
:10066000200000002DE9F0418046D21D22F0070253
:100670000025D2E90002F52915A614D0011E72F159
:10068000000106DA0023D0EB030063EB020211A69F
:1006900008E0D8F800108B0701D50FA602E0490743
:1006A00001D50EA601251146002408F1240704E017
:1006B00000F074FA30323A55641C50EA0102F7D166
:1006C0002B46324621464046BDE8F04100F0BDBA17
:1006D000000000002D0000002B00000020000000A2
:1006E000F0B40D460188090502D5214C7C4402E096
:1006F0001F4C7C440E34002100F1240608E002F077
:100700000F071209E75D42EA03721B097754491C7F
:1007100052EA0307F3D102780023120704D5702DA3
:1007200006D009B1022311342246F0BC00F08DBA84
:1007300001231034F8E770B504460D4621461068D1
:1007400000F07AFA024629462046BDE870400023B0
:10075000C6E7D21D22F00703D3E90023C0E70368F0
:10076000126843F0200303600823C3610023B7E746
:10077000AC0E05002DE9F05F894604464FF0000AF3
:10078000DFF874B1FB44C0F820A02046E168884738
:10079000002874D0252806D0D4E901219047206A8A
:1007A000401C2062F1E700265F462046E16888474A
:1007B0002028054607DB312D05D2781910F8200CCA
:1007C00008B10643F1E7B00701D526F00406C4F8E6
:1007D0001CA00027C4F818A02A2D09D0284606F02E
:1007E000D1FF38B304EB8708303DC8F8185019E042
:1007F00059F8041B204604EB87029161E1688847A1
:10080000012F054618D1E069002820DA26F02006DD
:100810001DE0D8F8180000EB800005EB40003038F0
:10082000C8F818002046E1688847054606F0AAFF88
:100830000028EED1012F0AD02E2D08D12046E168E4
:1008400088477F1C0546022F46F02006C4DBA069BE
:10085000002803DA404246F00106A061F00701D00B
:1008600026F010066C2D0BD0682D09D04C2D39D0F8
:100870006A2D35D0742D35D07A2D33D016E038E07E
:10088000E1682F4620468847B842054609D16C2FBB
:1008900026D04FF48060E16806432046884705462D
:1008A00004E06C2F1AD04FF4807006430DB3A5F10D
:1008B0004100192802D8203546F400664A462946E8
:1008C000204626604E46FFF7B9FC80B101280BD0C8
:1008D000F61D26F0070000F1080956E74020E4E77E
:1008E0008020D8E70020D6E706F104094DE7284626
:1008F00052E7206ABDE8F09F3C0E050040EA010384
:10090000024630B59B0710D14FF0013400E008C219
:1009100008C91D1B9D4315EAC41FF8D013F0FF0141
:1009200002F8011B0DD01B0AF8E711F8013B002B60
:1009300002F8013B05D011F8013B002B02F8013B06
:10094000F3D130BD10B5431C02E010F8011B71B1AA
:100950008107FAD14FF0013202C88C1A8C4314EA95
:10096000C211F9D0C01A0A0603D0C01E10BDC01AA9
:1009700010BD0A0401D0801E10BD0902FCD0401E2B
:1009800010BD032A40F2308010F0030C00F01580F7
:1009900011F8013BBCF1020F624498BF11F801CB82
:1009A00000F8013B38BF11F8013BA2F1040298BFE7
:1009B00000F801CB38BF00F8013B11F0030300F051
:1009C0002580083AC0F0088051F8043B083A51F8F5
:1009D00004CBA0E80810F5E7121D5CBF51F8043BFA
:1009E00040F8043BAFF30080D20724BF11F8013B6D
:1009F00011F801CB48BF11F8012B24BF00F8013BCF
:100A000000F801CB48BF00F8012B704710B5203A21
:100A1000C0F00B80B1E81850203AA0E81850B1E8B7
:100A20001850A0E81850BFF4F5AF5FEA027C24BF6D
:100A3000B1E81850A0E8185044BF18C918C0BDE864
:100A400010405FEA827C24BF51F8043B40F8043B2D
:100A500008BF7047D20728BF31F8023B48BF11F8E2
:100A6000012B28BF20F8023B48BF00F8012B70473C
:100A700002F0FF0343EA032242EA024200F002B816
:100A80004FF000020429C0F0128010F0030C00F0B7
:100A90001B80CCF1040CBCF1020F18BF00F8012B35
:100AA000A8BF20F8022BA1EB0C0100F00DB85FEA03
:100AB000C17C24BF00F8012B00F8012B48BF00F8CF
:100AC000012B70474FF0000200B51346944696463E
:100AD000203922BFA0E80C50A0E80C50B1F1200151
:100AE000BFF4F7AF090728BFA0E80C5048BF0CC0FF
:100AF0005DF804EB890028BF40F8042B08BF70475D
:100B000048BF20F8022B11F0804F18BF00F8012BCE
:100B1000704700004FF0013C50F8042B51F8043BA3
:100B20009A4221D1A2EB0C03934313EACC1317D1C1
:100B300050F8042B51F8043B9A4215D1A2EB0C0358
:100B4000934313EACC130BD150F8042B51F8043B18
:100B50009A4209D1A2EB0C03934313EACC13DBD0E6
:100B60004FF00000704700BFD01A01BAB1FA81F10E
:100B700001F0180122FA01F0CB40C1F12001DBB2F3
:100B8000C0B2C01A2CFA01F3D11A914311EAC31171
:100B9000E6D17047704770477047704730B5B0F185
:100BA0000A024FEA900E71F100034EEA817EB0EB2B
:100BB0000E0061EB91014FEA101E4EEA017E10EB30
:100BC0000E0041EB11114FEA102E4EEA016E10EBB0
:100BD0000E0041EB11214FEA104E4EEA014E10EB90
:100BE0000E0041EB1141401841F100014FEAD000E5
:100BF00040EA41704FEAD10110EB80054FEA8104D1
:100C000044EA907444EB01046D1944EB0404521B54
:100C1000A3414FF0000348BF0A3200D530BD401C4D
:100C200041F1000130BD09684A0501D540B2704765
:100C3000C905FCD500B2704709684A0501D5C0B2A4
:100C40007047C905FCD580B270472DE9F0470D46C5
:100C500099469246044600F124080168880604D5A6
:100C6000E06921F01001216000E00120A84201DDCF
:100C7000471B00E00027A1697A1902EB0900081A56
:100C8000A0612078C00602D42046FFF75FFC002652
:100C900008E0D4E901211AF806009047206A401CB8
:100CA000761C20624E45F4DB2078C0060AD520462B
:100CB000FFF74CFC06E0D4E9012130209047206A80
:100CC000401C2062381EA7F10107F4DC07E0D4E9DC
:100CD000012118F805009047206A401C2062281E58
:100CE000A5F10105F3DC2046FFF746FC207800065D
:100CF00002D50220BDE8F0870120FBE711680268F9
:100D0000006A530501D508700AE0D30501D50880B3
:100D100006E0130603D5C217C1E9000200E008602F
:100D20000120704701694A1C02610878704700B5CC
:100D30008FB0CDE901310021059105497944CDE914
:100D4000031011466846FFF715FD0FB000BD000007
:100D5000E5FFFFFF0A6802F8010B0A60704710B553
:100D6000436913B1AFF3008001E0FFF716FC0120E7
:100D700010BD127800F124010A7000224A7001228D
:100D8000EDE711684FF0FF32E9E70000074B70B55F
:100D90000D467B44FFF7CBFF0446284600F042FC9B
:100DA00010B14FF0FF3070BD204670BD6B4E01009A
:100DB0002DE9FF5F15468A460446DFF8AC80F8440B
:100DC0000027D8E900103E46CDE9001010E03AF8BF
:100DD00016106A4602A800F029FC411C07D02178B1
:100DE000890603D5E269391891420DD80744761C6B
:100DF0002078800602D5E069B84205DDAE42E6DB28
:100E00003AF816000028E2D1A069C01BA061204674
:100E1000FFF79CFBD8E90010CDE90010002017E097
:100E20003AF818106A4602A800F000FCB0F1FF3F43
:100E300081460BD000250DF1080B05E0D4E9012116
:100E40001BF8050090476D1C4D45F7D308F10100D4
:100E5000B0428046E4DB206A384420622046FFF737
:100E60008BFBBDE8FF9F00001608050030B4002191
:100E700000F1240408E002F00705D208303542EA08
:100E80004372DB086554491C52EA0305F3D1046838
:100E9000002310A2250707D5A40600D421B1C469F8
:100EA00001230DA2641EC46130BCFFF7CEBE10B595
:100EB000044621461068FFF7BFFE02462046BDE803
:100EC00010400023D2E7D21D22F00701D1E9002310
:100ED000CCE70000000000003000000070472DE962
:100EE000FF4F0C461E464FF0FF378BB0D2E9000192
:100EF000DDF860800A908A46C1F30A5505B93D467F
:100F0000002108464FF00000BAF1000F00F4400045
:100F100005DA00EB80004FF4400101EA50004FEA8F
:100F20009059B9F1010F00DDB9460A9850EA4A001C
:100F30000ED044F61050A5F2FF3545432F14B8F1FA
:100F4000000F1ED07542291E1EDDC9F100021CE0F3
:100F5000B8F1010F4FF0000001D0302103E0F2435F
:100F600005E02154401CB042FBDB3046002200214A
:100F700021540B99C1F80880C1E900200FB0BDE8E9
:100F8000F08FBD1B6D1CDEE74A4600DA694206A8F9
:100F900000F0DEFB06AB93E8070003AB83E8070035
:100FA00050460A9900F054FC8DE80700A0F5005067
:100FB0001F3800900398002D0ADD42F21F014A46B7
:100FC0000844002303A90390684600F0BDFE09E031
:100FD000A0F500504A461F38002303A90390684635
:100FE00000F0C7FE8DE807000004000C03D04FF0AE
:100FF000FF30410800E01046B8F1000F03D0002296
:10100000009215461EE0751E05D4FFF7C7FD30326D
:1010100062556D1EF9D5B3460122084302D0002265
:101020007F1C04E02078302801D100227F1E002A96
:10103000099784D01DE0112D07DAFFF7AFFD30329C
:1010400062556D1C50EA0102F5D1084302D00098A8
:10105000C8B10EE00021681E05E0235C625C6354A9
:101060002254401E491C8142F7DBAB46A81B401EA0
:101070000990002004F80B000B98099AC0F808802A
:10108000C0E9002B7AE711264FF0000857E72DE959
:10109000F04F88460446D21D22F0070191B0D1E9F5
:1010A0000001CDE90A0106F01BFB02460B98C00FB8
:1010B00001D02D2007E02068810701D52B2002E018
:1010C000202101EAC000032A099001D0072A05DB8C
:1010D00003464146204600F0FBFA0BE120788006EB
:1010E00001D5E06900E00620B8F1650F814606D021
:1010F000B8F1660F18D0B8F1670F70D131E0002059
:10110000B9F1110F009001DB112301E009F1010396
:101110000AAA01A90CA8FFF7E2FEDDE90C7000267F
:1011200009F10105834647E001204B4600904FF04E
:1011300000470AAA01A90CA8FFF7D1FEDDE90DB00E
:101140000C995D46002610B909F101000D18B9EBA4
:10115000050003D4C0F1FF3609F10105A5EB090034
:101160002BE0B9F1010F01DA4FF001090020B9F1CC
:10117000110F0090484601DD112300E003460AAA42
:1011800001A90CA8FFF7ABFEDDE90C704D46002667
:101190008346207800070AD4AB4500DA5D4601A8F3
:1011A000012D04DD411911F8011C302907D04F45EC
:1011B00002DA17F1040F04DA012082460FE06D1EF7
:1011C000EEE7002F02DCED1B3E4403E0781CA84252
:1011D00000DD7D1CB81B00F1010A4FF000472078AC
:1011E000000703D4AA4501DB4FF0FF3A0021B7F115
:1011F000004F0DF143088DF8431024D002202B231B
:10120000002F01DA7F422D230A21021EA0F10100E6
:1012100000DC5FB197FBF1FC97FBF1F201FB1C7C5A
:1012200017460CF1300C08F801CDEEE7A8F10100EB
:1012300003702188090501D5452100E06521A0F151
:10124000010800F8011C09980FA9A1EB0807FF1D70
:1012500000B10120411901EBEA70A1693844081A74
:10126000401EA0612078C00602D42046FFF76EF928
:10127000099828B1D4E901219047206A401C2062D6
:101280002078C00622D52046FFF760F91EE0002E28
:1012900004DBB34502DD01A8805D00E03020D4E925
:1012A00001219047206A401C2062761CAAF10100AF
:1012B0005FEA000A0AD100F007FAC0680168405CE2
:1012C000D4E901219047206A401C2062281EA5F124
:1012D0000105DCDC07E0D4E9012118F8010B904797
:1012E000206A401C2062381EA7F10107F3DC20466B
:1012F000FFF742F9032011B041E600002DE9F04F5D
:1013000004460D46D21D22F0070089B0D0E90097AF
:101310004846394606F0E4F90246F80F01D02D237D
:1013200007E02068810701D52B2302E0202101EA94
:10133000C0038DF820300BB1012000E00020032A0B
:10134000824601D0072A04DB2946204600F0C0F976
:101350003FE12078800601D40D2500E0E569C7F360
:101360000A560D2D49DA00214FEA175B08464FF067
:101370000000002F00F4400007DA00EB80004FF47B
:10138000400100EBD07001EA60008115012901DD08
:101390004FF0FF3100224FEA850CBCF1180F06D345
:1013A0001346ACF118004FF08052C24003E04FF4F6
:1013B000801323FA0CF30CF10C0CBCF1200F04D3B6
:1013C000ACF1200C09FA0CF001E007FA0CF000294E
:1013D0004FF0004801DD18B90FE00ED140450CD3A5
:1013E00019EB02095F4121B9404502D19F4329EA27
:1013F0000209BBEB175F00D0761C2088000502D5E0
:101400007B48784402E07A487844193808AA3023A7
:1014100002F80A30037C0AF10101002E0AF1020AE7
:1014200053546A4602DC4FF0300101E04FF03101C5
:101430004FF001088DF8001002D0A6F2FF3603E04D
:1014400059EA470100D06B4E002D02DC21780907D4
:1014500004D54FF002082E218DF80110C44600215A
:101460000BE0C7F303433F01C35C491C6D1E02F848
:101470000830052908F1010801DA002DF1DC00210E
:101480000CE000EB1973491C1B786D1E082902F84B
:1014900008304FEA091908F1010801DA002DF0DCE3
:1014A00021688B0602D516E0A8F10108E04505DDAC
:1014B00002EB080313F8013C302BF5D0B8F1000F14
:1014C00009DD02EB080313F8013C2E2B03D10907B9
:1014D00001D4A8F10108002D05DD3E2102F8081015
:1014E0006D1E08F10108407C002E02F8080008F18A
:1014F000010804DA2D20764202F8080002E02B20D1
:1015000002F808000A214FF47A70864208F10108B7
:101510000BDB96FBF0F3303302F8083096FBF0F368
:1015200008F1010800FB136601E0642E0CDB642067
:1015300096FBF0F3303302F8083096FBF0F308F135
:10154000010800FB136601E00A2E06DB96FBF1F0B2
:10155000303002F8080008F1010896FBF1F001FBB9
:101560001060303002F80800A16908F1010808EBAA
:10157000050202EB0A00081AA0612078C00602D416
:101580002046FEF7E3FF216A08AE01EB0A00206265
:1015900004E0D4E9012116F8010B9047BAF1010AE1
:1015A000F7D22078C00602D52046FEF7CFFF6E4660
:1015B00009E016F8010B3E280FD0D4E9012190472D
:1015C000206A401C2062B8F10108F2D22046FEF7E2
:1015D000D3FF09B00320BDE8F08F206A28442062C1
:1015E00003E0D4E90121302090476D1EEBD3F8E7EA
:1015F000ED01050002FCFFFF10B5436913B1AFF325
:10160000008001E0FFF7D4FB012010BD128800F13B
:10161000240182840022C2840122EDE711684FF088
:10162000FF32E9E7007B00F08000704770B5164696
:101630000C46054600F040F8036893F801010128C4
:1016400006D0FF2C0FD8185D68B101202C7070BD3A
:10165000D3F807013246214603F207130344284614
:10166000BDE8704018474FF0FF3070BD754600F080
:10167000EBF8AE4605006946534620F00700854664
:1016800018B020B5FEF7BAFEBDE820404FF00006C6
:101690004FF000074FF000084FF0000B21F007015A
:1016A000AC46ACE8C009ACE8C009ACE8C009ACE89D
:1016B000C0098D467047000010B500F005F8001D08
:1016C00010BD00BF99980300004870479CE50120B9
:1016D0002DE9F0411F46044603260168072A01F45C
:1016E000006004DB08B116A505E016A503E008B10B
:1016F00015A500E015A521F010002060A069C01E0E
:10170000A0610FB1401EA0612046FEF71FFF4FB140
:10171000D4E9012138469047206A401C2062C01C51
:10172000206206E0206AFAE7D4E9012115F8010BEE
:101730009047761EF8D22046FEF71EFFBDE8F081E6
:101740004E414E006E616E00494E4600696E660065
:101750002DE9F047814616468AB0354878440DC8D1
:101760008DE80D0032487844801C03AC0DC884E835
:101770000D0041F69B300844372190FBF1F290FBBD
:10178000F1F5A5F1800501FB12041B3C02D5644272
:10179000012000E00020DFF898A080460027FA44EE
:1017A000AAF1BE0A0EE0E0070AD03246684607EB0F
:1017B000470101230AEB810100F0DBFA8DE8070005
:1017C00064107F1C002CEED1194F7F44AE3F19E00E
:1017D000E80715D007EB04100DF1180A90E80E0089
:1017E0008AE80E00C068F04201D19819089032468C
:1017F000012306A903A800F0BCFA03AB83E80700A5
:101800006D10641C002DE3D14FF001033246694690
:10181000B8F1000F03A802D000F096FA01E000F042
:10182000A8FAC9E90001C9F808200AB0BDE8F087A4
:1018300024FF040010B50446AFF300802046BDE845
:101840001040FEF760BD0000004870477CE50120B5
:101850005FEA400C08BF91F0000F4FEA8C234FEA7B
:10186000C12243EA51514FEA1C5018BF00F5F04025
:101870004FEA300018BF41F000415FEA6C5C00F0B5
:101880002980BCF1FF3F08BF40F080407047130C37
:1018900006BF12044FF0100C4FF0000C130E04BFE3
:1018A00012020CF1080C130F04BF12010CF1040C0E
:1018B000930F04BF92000CF1020CD30F04BF52002F
:1018C0000CF1010C11464FF00002A0F11F00A0EB3B
:1018D0000C00704711F0004F08BF704731F0004115
:1018E0003FF4D5AF0B0C06BF09044FF0100C4FF0BE
:1018F000000C0B0E04BF09020CF1080C0B0F04BF07
:1019000009010CF1040C8B0F04BF89000CF1020CCF
:10191000CB0F04BF49000CF1010CCCF12003A0EB6C
:101920000C0022FA03F302FA0CF241EA030100F17F
:101930000100704720F07F4C80EA030023F07F47CE
:10194000ACEB070303F57C5300F0004003F1FF0309
:101950002DE980494FEA154B09B44FEA144325EAB3
:101960000B4E24EA03480FF2042606EB132749081E
:101970003E785FEA320203FB0667C7F5000707FB04
:1019800006F64FEA54374FEAD64606F1020607FB41
:10199000066CCCF1005C4FEA1C472CEA074C07FBB5
:1019A00006F40CFB06F504EB15464FEA961634BF19
:1019B00000204FF000404FEAD13706FB07FC4FEA0A
:1019C0001C4C0CFB0BF7D21B03FB0CF761EB070164
:1019D0000CFB0EF7B0EB074072EB17420CFB08F75D
:1019E00034BFA2EB0742B2EB074261EB17414FEA6B
:1019F0000C444FEA910706FB07FC4FEA1C4C0CFB1A
:101A00000BF7B0EBC74072EB573203FB0CF734BF58
:101A1000A2EBC742B2EBC74261EB57310CFB0EF7AA
:101A2000B0EBC70072EB57720CFB08F734BFA2EBA8
:101A3000C702B2EBC70261EB5771039F4FEA8161A6
:101A400041EA921104EBCC044FEAD1374FEA8262AB
:101A500006FB07FC42EA90124FEA80604FEA1C4CFA
:101A60000CFB0BF7D21B03FB0CF761EB07010CFB24
:101A70000EF7B0EB074072EB17420CFB08F734BFD0
:101A8000A2EB0742B2EB074261EB17414FEA8C55DC
:101A90004FEA910704EB9C2406FB07FC4FEA1C4C21
:101AA0000CFB0BF7B0EBC74072EB573203FB0CF7A4
:101AB00034BFA2EBC742B2EBC74261EB57310CFB1C
:101AC0000EF7B0EBC70072EB57720CFB08F734BF90
:101AD000A2EBC702B2EBC70261EB577115EB4C25C5
:101AE0004FEA816141EA92114FEA82624FEAD137AF
:101AF00042EA901206FB07FC44F100044FEA8060C2
:101B00004FEA1C4C0CFB0BF7D21B03FB0CF761EBF1
:101B100007010CFB0EF7B0EB074072EB17420CFB12
:101B200008F734BFA2EB0742B2EB074261EB174163
:101B300015EB1C154FEA813141EA92414FEA82329E
:101B400042EA90424FEA80304FEA0C7644F10004BA
:101B500048EA03434EEA0B484FF0000EB2EB080C84
:101B600071EB030724BF624639464EEB0E0E4FF071
:101B7000000B0018524149414BEB0B0BB2EB080C28
:101B800071EB03077BF1000B24BF624639464EEB35
:101B90000E0E4FF0000B0018524149414BEB0B0B5E
:101BA000B2EB080C71EB03077BF1000B24BF62461C
:101BB00039464EEB0E0E51EA020718BF46F00106F9
:101BC00016EB0E7655F1000254F1000103D5BDE885
:101BD0008901BDE80088BDE88901BDE80048B61963
:101BE000524141EB0101A3F10103704780807F7EE8
:101BF0007D7C7B7A79787776767574737271717083
:101C00006F6E6E6D6C6C6B6A6A6968686766666534
:101C10006464636362616160605F5F5E5E5D5D5CC2
:101C20005C5B5B5A5A595958585757565655555533
:101C30005454535352525251515050504F4F4F4E93
:101C40004E4D4D4D4C4C4C4B4B4B4A4A4A494949E1
:101C50004848484747474746464645454544444423
:101C6000444343434342424242414141002B9C464C
:101C700030D477002BD01CB54FEA370703B44FF0B0
:101C800010004FF01001BAF1000F06D0BCF1000FA8
:101C9000DCBF40F0080040F008014FF000000FBC2E
:101CA000BDE810400BF1010BBBF1010F08BF5FEA6B
:101CB000170722BF12F1010211F101014FF000419B
:101CC00043F1000300F0004043EA00007047F9D3FD
:101CD0005708D0E746EA064613F1400F4FEA16468A
:101CE0001FDD13F1200FDFBF16430A46002120330A
:101CF0005B42BED0C3F1200746EA064602FA07F768
:101D00004FEA164646EA0706C3F1200722FA03F215
:101D100001FA07F721FA03F14FF0000342EA070244
:101D2000A7E746EA020646EA06464FEA164646EAAC
:101D30000106BCBF46EA0646360C4FF000034FF0E2
:101D400000024FF0000194E72DE9804C9A4693463B
:101D500070B491E8380007C831EA400C48BF34EA53
:101D6000430C03D5FFF7E6FDFFF780FFF0BCBDE8AD
:101D7000008C2DE9804C9A46934670B491E8380067
:101D800007C810F0804F08BF13F0804F03D100F058
:101D900005F8FFF76BFFF0BCBDE8008C20F07F4733
:101DA00080EA030023F07F4C07EB0C03A3F57C5380
:101DB00000F00040A3F1FE0392F0000F00F0B380AA
:101DC00095F0000F00F077802DE901494FEA1140AE
:101DD0004FEA144621EA004800FB06FC24EA0647C5
:101DE00008FB06F607FB08F800FB07F718EB0648A8
:101DF0004CEB164C4FEA124B18EB07484FEA1546CE
:101E00004CEB174022EA0B4E0BFB06FC25EA06477B
:101E10000EFB06F607FB0EFE0BFB07F71EEB064E4E
:101E20004CEB164C4FF000061EEB074E4CEB174BDD
:101E300018EB0B0840F1000018EB0E0B58EB0008F4
:101E400040F100008F1A4FF000013CBFC943661BF0
:101E500014BFB5EB040C00213CBFC943F61B4FEA8D
:101E600017444EEA8E0E27EA04454FEA1C4704FB4E
:101E700007622CEA074C05FB07F70CFB05F604FB91
:101E80000CFC16EB074642EB174216EB0C4642EBF6
:101E90001C421BEB060658EB0202414146EA9E0635
:101EA00001D5BDE80189B619524141EB0101A3F109
:101EB0000103BDE801894FEA14454FEA114724EABE
:101EC000054621EA074C05FB07F406FB07F70CFB68
:101ED00006F105FB0CFC11EB074144EB17444FEAFC
:101EE000124711EB0C4144EB1C4422EA074C05FB62
:101EF00007F206FB07F70CFB06F605FB0CFC16EBDE
:101F0000074642EB174216EB0C4642EB1C456A189B
:101F100054F1000148BF7047B619524141EB01012D
:101F2000A3F10103704795F0000F37D04FEA11423B
:101F30004FEA144721EA024624EA074C02FB07F164
:101F400006FB07F70CFB06F402FB0CFC14EB074442
:101F500041EB17414FEA154714EB0C4441EB1C4190
:101F600025EA074C02FB07F506FB07F70CFB06F614
:101F700002FB0CFC16EB074645EB174516EB0C462F
:101F800045EB1C42121951F1000148BF7047B619C8
:101F9000524141EB0101A3F1010370474FEA14459F
:101FA0004FEA114724EA054621EA074C05FB07F1F1
:101FB00006FB07F70CFB06F24FF0000605FB0CFCD6
:101FC00012EB074241EB174112EB0C4251EB1C4163
:101FD00048BF7047921841EB0101A3F1010370471C
:101FE00000BFFEE770B505460C461646042D15D019
:101FF00007DC7DB1012D0ED0022D0DD0032D50D167
:102000000BE0202D0BD0212D30D0222D47D0232DB9
:1020100047D145E046E045E044E043E042E0207837
:10202000617840EA0120A17840EA0140E17840EA85
:1020300001601E4908602079087160794871A079B3
:102040008871084601791AA0FEF774FA1748417999
:102050001DA0FEF76FFA1548817922A0FEF76AFAF3
:102060001248016826A0FEF765FA1BE00F480078C9
:1020700020700E480088000A60700C480068000C50
:10208000A0700A480068000EE070084800792071CE
:1020900006484079607105488079A07102E001E04E
:1020A00000E000BF00BF002070BD0000240300203E
:1020B0006C696E65636F64696E672E666F726D61C1
:1020C000743A25640D0A00006C696E65636F64697B
:1020D0006E672E706172697479747970653A2564DF
:1020E0000D0A00006C696E65636F64696E672E642B
:1020F000617461747970653A25640D0A000000000E
:102100006C696E65636F64696E672E626974726173
:1021100074653A25640D0A000020704710B5034924
:10212000034803F0D3FA002010BD0000E4DE0120D4
:10213000A804002070B505460C46044803F0A1FA37
:102140002846216809F018F9002070BDA804002075
:102150007047000070B504461D460023B5F5804F5A
:1021600013D154F822300C480340D1E9000640EA6C
:1021700006108E6840EA06208E8940EA06408E6985
:102180003043034344F8223003E06FF0704044F8DA
:102190002200002070BD00000000F0CF10B5034603
:1021A0000022086853F8202012480240D1E90104B7
:1021B0002043CC6820430C6920434C6920438C6940
:1021C0002043CC6920430C6A20434C6A20438C6A2C
:1021D0002043CC6A2043CC6B20430C6B204302434A
:1021E0008868082801D142F04002086843F820209E
:1021F000002010BD8000F0FF30B503460024501CC5
:1022000053F8204004F04044D1E9000540EA0510AD
:102210008D6840EA05208D8940EA0545088A401E00
:1022200045EA0055087D801E45EA00608D69284317
:102230000443501C43F82040002030BD1CB524F05E
:1022400013F92CF015F82CF03BF806480121002377
:102250008022CDE9001004A1064838F0CDFA37F00D
:1022600051FE1CBD0000002073746172745F7461C4
:10227000736B0000215B030870B50A480468001DF9
:102280000568001D0668344454B1082206492046FA
:1022900002F0FCFB042204491031284602F0F6FB50
:1022A00070BD0000107AFF1F7E03002070B5044649
:1022B000A56D00F099F9064694F83500022808D07B
:1022C0008020606500BF002084F8340000BF01203A
:1022D00070BD2068006820F0160021680860206842
:1022E000406920F0800021684861206C08B9A06C2A
:1022F00028B12068006820F0080021680860206884
:10230000006820F00100216808600FE000F06CF91F
:10231000801B05280AD92020606500BF002084F8B2
:10232000340000BF032084F83500D1E7206800683E
:1023300000F001000028E9D194F85C103F208840AB
:10234000A86000BF002084F8340000BF012084F89A
:1023500035000020BCE7014691F83500022803D083
:102360008020486501207047052081F83500086805
:10237000006820F001000A6810600020F3E7000008
:1023800070B5044600F030F906462546681C10B1C9
:1023900004480078054400BF00F026F9801BA842DD
:1023A000FAD370BD64000020F8B502460B46002544
:1023B000002400200021DEE0012606FA01F51E6857
:1023C00006EA0504AC4275D11E7906F00306012E1B
:1023D00004D01E7906F00306022E13D190684F0038
:1023E0000326BE40B0434F00DE68BE4030439060DD
:1023F000506801268E40B0431E79C6F300168E4009
:10240000304350601E7906F00306032E09D0D068D1
:102410004F000326BE40B0434F009E68BE4030438D
:10242000D0601E7906F00306022E13D1CF0802F108
:10243000200656F827004E07F70E0F26BE40B04381
:102440004F07FF0E1E69BE403043CF0802F1200641
:1024500046F8270010684F000326BE40B0431E799F
:1024600006F003064F00BE40304310605E6806F081
:102470008056B6F1805F7DD100BF00260096404EA9
:10248000366846F480463E4F3E603E46366806F467
:102490008046009600BF00BF3A4E8F0856F82700CE
:1024A0008E07370F0F26BE40B043374EB24202D1DF
:1024B000002624E05EE0354EB24201D101261EE046
:1024C000334EB24201D1022619E0324EB24201D15E
:1024D000032614E0304EB24201D104260FE02F4E05
:1024E000B24201D105260AE02D4EB24201D10626A4
:1024F00005E02C4EB24201D1072600E008268F07E6
:102500003F0FBE4030431F4E8F0846F82700264E2F
:102510003068A0435E6806F48036B6F5803F00D18F
:102520002043214E3060361D3068A0435E6806F4BB
:102530000036B6F5003F00D120431B4E361D3060FB
:10254000361D3068A0435E6806F48016B6F5801F1D
:1025500000D12043144E08363060361D3068A04349
:102560005E6806F40016B6F5001F00D120430E4E3B
:102570000C363060491C1029FFF41EAFF8BD000076
:102580004438024008380140000002400004024084
:1025900000080240000C02400010024000140240FB
:1025A00000180240001C0240003C01400246136932
:1025B0000B400BB1012000E00020704710B54269CC
:1025C00021EA020302EA010443EA0443836110BDE5
:1025D0000AB1816101E00B04836170470148006822
:1025E000000C7047002004E00148006870470000BC
:1025F0005C00002003480068034909780844014949
:10260000086070475C0000206400002010B50A4894
:10261000006840F40070084908600846006840F40B
:1026200080600860032000F07FF80F2000F006F8BB
:1026300000F02AF8002010BD003C024070B50446AE
:102640000E4800784FF47A71B1FBF0F00C4909683C
:10265000B1FBF0F5284601F0C5FE08B1012070BDC0
:10266000102C07D200222146501E00F01EF805480B
:10267000046001E00120F2E70020F0E764000020A0
:102680000400002060000020704701460846002832
:1026900009DB00F01F0301229A4043099B0003F16C
:1026A000E023C3F8002100BF70472DE9F05F8046AA
:1026B0000D461646002705F02BF8074639462A46F0
:1026C000334601F00700C0F1070ABAF1040F02D93E
:1026D0004FF0040A01E0C0F1070AD14600F1040AF4
:1026E000BAF1070F02D24FF0000A01E0A0F1030A8D
:1026F000D4464FF0010A0AFA09FAAAF1010A0AEAD5
:10270000020A0AFA0CFA4FF0010B0BFA0CFBABF1C0
:10271000010B0BEA030B4AEA0B042146404604F086
:10272000FFFFBDE8F09F000000BF00F00702064B6E
:1027300019684FF6FF031940044B0B4343EA02218B
:10274000014B196000BF70470CED00E00000FA0576
:10275000704702461068416200207047F0B503469A
:1027600015461868446A21B944EA05401E68B062FB
:1027700019E01868806A04EB1044002208E0186829
:1027800000F5827050F8220004EB1044501CC2B2D5
:10279000481E9042F3D844EA0547186800F5827055
:1027A0004E1E40F826700020F0BD000010B5044613
:1027B000012003490870D4F8040403F050FB10BD55
:1027C0004403002070B504460D46C5EBC50304F173
:1027D0003C0101EB8301CA682946D4F8040403F0E4
:1027E00086FA70BD70B504460D46C5EBC50304F509
:1027F000FE7101EB8301CA682946D4F8040403F092
:10280000E7FA70BD10B5044600200549087005A020
:10281000FDF790FED4F8040403F024FB10BD000083
:102820004403002055534220446576696365204483
:102830006973636F6E6E65637465642E0D0A0000C4
:1028400070B504460E4606F0800080280AD106F0D6
:102850000F00C0EBC00104F13C0000EB810501203A
:10286000687009E006F00F00C0EBC00104F5FE70CF
:1028700000EB81050020687006F00F00287000BF93
:1028800094F8BC03012801D1022070BD012084F816
:10289000BC0300BF2946206804F09AF800BF00205E
:1028A00084F8BC0300BF00BFEFE770B504460E46D6
:1028B00006F00F006168884201D9012070BD06F062
:1028C000800080280AD106F00F00C0EBC00104F19F
:1028D0003C0000EB81050120687009E006F00F0064
:1028E000C0EBC00104F5FE7000EB810500206870AC
:1028F0000020A87006F00F00287000BF94F8BC03F9
:10290000012801D10220D9E7012084F8BC0300BFCF
:102910002946206804F042FB00BF002084F8BC0375
:1029200000BF00BFCAE7024601F00F00C0EBC003C2
:1029300002F5FE7000EB8300806970472DE9F047D7
:1029400005460E4690461F464FF0000906F08000EF
:1029500080280AD106F00F00C0EBC00105F13C0051
:1029600000EB81040120607009E006F00F00C0EB6D
:10297000C00105F5FE7000EB81040020607006F0D8
:102980000F002070C4F80880E770607808B12078E4
:10299000E080022F01D10020207100BF95F8BC0318
:1029A000012802D10220BDE8F087012085F8BC0390
:1029B00000BF2146286803F027FF00BF002085F8EC
:1029C000BC0300BF4846EEE72DE9F04104460E4641
:1029D0001746984606F00F00C0EBC00104F5FE70E4
:1029E00000EB8105EF60C5F814800020A8616870D5
:1029F00006F00F0028702069012800D12F6106F031
:102A00000F0028B9227C2946206804F0A3F904E0CD
:102A1000227C2946206804F055FB0020BDE8F081A7
:102A200070B504460D4605F00F006168884201D973
:102A3000012070BD05F0800080280AD105F00F004C
:102A4000C0EBC00104F13C0000EB81060120707076
:102A500007E0C5EBC50104F5FE7000EB8106002020
:102A600070700120B07005F00F00307000BF94F856
:102A7000BC03012801D10220DBE7012084F8BC035C
:102A800000BF3146206804F0D0FA05F00F0028B9E5
:102A9000217C04F57172206804F048FA00BF002020
:102AA00084F8BC0300BF00BFC3E72DE9F041044632
:102AB0000E461746984606F00F00C0EBC00104F121
:102AC0003C0000EB8105EF60C5F814800020A86190
:102AD0000120687006F00F0028702069012800D1DD
:102AE0002F6106F00F0028B9227C2946206804F0E7
:102AF00031F904E0227C2946206804F0E3FA002042
:102B0000BDE8F0812DE9FE4F044620680290029D49
:102B1000206804F0C2FC00287DD1206804F0FCFC91
:102B200008B9BDE8FE8F206804F0F6FC00F0020052
:102B3000022805D12068406900F002002168486140
:102B4000206804F0E9FC00F01000102846D120684D
:102B5000806920F01000216888610298D0F82090E8
:102B600009F00F00C0EBC00104F5FE7000EB810B13
:102B7000C9F3434002281AD147F6F07009EA000071
:102B800030B3C9F30A12DBF80C10029804F0C9FC48
:102B9000C9F30A11DBF80C000844CBF80C00C9F3A8
:102BA0000A11DBF818000844CBF8180010E0C9F34C
:102BB000434006280CD1082204F57171029804F0F4
:102BC000B0FCC9F30A11DBF818000844CBF8180070
:102BD0002068806940F0100021688861206804F056
:102BE0009BFC00F40020B0F5002F52D10026206895
:102BF00004F062FC824649E00AF00100E8B3F1B259
:102C0000206804F07CFC804608F0010058B10121E6
:102C100005F5306000E021E200EB461081603146AE
:102C2000204602F04FF808F00800082809D10821D2
:102C300005F5306000EB461081603146204602F019
:102C40000FF808F01000102805D1102105F53060AC
:102C500000EB4610816008F02000202805D12021DB
:102C600005F5306000EB4610816008F40050B0F5C7
:102C7000005F08D14FF4005100E004E005F530603A
:102C800000EB46108160761C4FEA5A0ABAF1000F39
:102C9000B2D1206804F040FC00F48020B0F5802F11
:102CA0007ED1206804F0FEFB8246002683E00AF015
:102CB000010000287CD0F1B2206804F007FC8046B7
:102CC00008F00100F0B306F00F01012088400190E8
:102CD00040F634004159019821EA000040F63401E1
:102CE0004851012105F5106000EB46108160206914
:102CF000012824D1C6EBC60104F13C0000EB8100A1
:102D0000C6EBC602C16804F13C0000EB820080689B
:102D10000144C6EBC60204F13C0000EB8200C16036
:102D20006EB9C6EBC60104F13C0000EB81004069BE
:102D300028B904F571720121206804F0F7F8F1B2A6
:102D4000204600E001E0FFF73DFD08F008000828FC
:102D500005D1082105F5106000EB4610816008F0F0
:102D60001000102805D1102105F5106000EB461069
:102D7000816008F04000402805D1402105F5106031
:102D800000EB4610816008F00200022805D1022104
:102D900005F5106000EB4610816008F0800001E04E
:102DA0000DE005E0802803D13146204602F048F8C6
:102DB000761C4FEA5A0ABAF1000F7FF478AF206808
:102DC00004F0AAFB00F00040B0F1004F1CD140F627
:102DD0000400405920F0010140F60400415194F8EC
:102DE000F403012807D1002084F8F40300212046D1
:102DF000FFF7AEFC02E0204600F09AFA2068406936
:102E000000F0004021684861206804F085FB00F470
:102E10000060B0F5006F0ED140F60800405900F098
:102E2000010010B1204600F0E7FA2068406900F484
:102E3000006021684861206804F06EFB00F4805057
:102E4000B0F5805F7DD140F60400405920F00101CB
:102E500040F6040041511021206804F0F3FA0027E5
:102E60003EE04FF67F3105F5106000EB47108160C2
:102E700005F5106000EB4710006820F4001105F51F
:102E8000106000EB4710016005F5106000EB471083
:102E9000006840F0006105F5106000EB471001602C
:102EA0004FF67F3105F5306000EB4710816005F586
:102EB000306000EB4710006820F4001105F5306029
:102EC00000EB4710016005F5306000EB471000682B
:102ED00040F0006105F5306000EB471001607F1C99
:102EE0006068B842BDD840F61C00405940F001115E
:102EF00040F61C004151206B70B1D5F8840840F0B9
:102F00000B01C5F8841840F64400405940F00B010D
:102F100040F6440041510FE040F61400405942F29F
:102F20002B01084340F614014851081F405940F056
:102F30000B014FF401604151D5F8000820F4FE6008
:102F400000E00DE0C5F80008217C04F571722068EE
:102F500003F0ECFF2068406900F48050216848616C
:102F6000206804F0D9FA00F40050B0F5005F17D1E2
:102F7000206803F0B1FC206804F07CFAE06000F007
:102F8000F9FB0090227B2068009904F015FB204695
:102F900000F082F92068406900F40050216848611F
:102FA000206804F0B9FA00F00800082808D120468B
:102FB00000F0D2F92068406900F0080021684861FB
:102FC000206804F0A9FA00F48010B0F5801F0AD13F
:102FD00000263146204600F043F82068406900F49E
:102FE000801021684861206804F096FA00F400100F
:102FF000B0F5001F0AD100263146204600F039F80E
:103000002068406900F4001021684861206804F0DD
:1030100083FA00F08040B0F1804F08D12046FFF7DE
:10302000C5FB2068406900F0804021684861206845
:1030300004F072FA00F0040004280FD12068D0F8E0
:10304000049009F00400042802D12046FFF7DAFBBF
:103050002068406840EA09002168486000BF60E5D8
:1030600070B504460D462946D4F8040402F05EFF0C
:1030700070BD70B504460D462946D4F8040402F02C
:103080006DFF70BD70B58AB0044614B901200AB056
:1030900070BD266894F8BD0328B9002084F8BC03ED
:1030A000204600F0A3F8032084F8BD03F06B00F481
:1030B000807008B900212161206803F043FE2822B6
:1030C00004F110016846FDF7A1FC94E80F0003F03D
:1030D00017FC20B1022084F8BD030120D7E70021AE
:1030E000206804F02FFA002531E00121C5EBC5026C
:1030F00004F13C0000EB82004170C5EBC50104F116
:103100003C0000F82150C5EBC50100EB8100C580F3
:103110000021C5EBC50204F13C0000EB8200C17048
:10312000C5EBC50204F13C0000EB82008160C5EBF9
:10313000C50204F13C0000EB8200C160C5EBC50292
:1031400004F13C0000EB82004161681CC5B260687C
:10315000A842CAD800252AE00021C5EBC50204F523
:10316000FE7000EB82004170C5EBC50104F5FE70F6
:1031700000F821500021C5EBC50200EB8200C170B0
:10318000C5EBC50204F5FE7000EB82008160C5EB63
:10319000C50204F5FE7000EB8200C160C5EBC502FC
:1031A00004F5FE7000EB82004161681CC5B26068E6
:1031B000A842D1D8282204F110016846FDF726FC68
:1031C00094E80F0003F0CEFC20B1022084F8BD0388
:1031D00001205CE7002084F83800012084F8BD035A
:1031E000206803F0ADFC002051E7000010B586B068
:1031F0000446142101A8FDF765FC2068B0F1A04F3A
:1032000043D100BF2248006840F080002049086098
:1032100000BF002000901E481030006840F480403D
:103220001B49103108600846006800F48040009097
:1032300000BF00BF00BF00BF002000901448001F67
:10324000006840F001001249091F08600846006844
:1032500000F00100009000BF00BF4FF4C05001908B
:103260000220029000200390032004900A20059081
:1032700001A90848FFF798F8032200214320FFF72F
:1032800014FA4320FFF701FA00E000BF06B010BDBA
:10329000343802400000024070B504460125E06861
:1032A00010B102280AD104E00CA0FDF743F9002573
:1032B00009E011A0FDF73EF9012504E015A0FDF796
:1032C00039F9012500BF00BFD4F8040402F07EFEE6
:1032D0002946D4F8040402F0D0FE70BD55534220B4
:1032E000446576696365204C696272617279202059
:1032F0005B48535D0D0A00005553422044657669D2
:103300006365204C69627261727920205B46535D6F
:103310000D0A000055534220446576696365204CD0
:1033200069627261727920205B46533F5D0D0A002D
:1033300010B5044603A0FDF7FDF8D4F8040402F02C
:103340007BFE10BD44657669636520526573756DBB
:1033500065640D0A0000000010B50446D4F80404AA
:1033600002F075FE10BD70B504460D4600BF94F81E
:10337000BC03012801D1022070BD012084F8BC03E8
:1033800000BF84F838502946206804F0F6F800BFE2
:10339000002084F8BC0300BF00BFEDE710B5044671
:1033A00004F57171D4F8040402F07CFE10BD70B510
:1033B0000446256800BF94F8BC03012801D102200F
:1033C00070BD012084F8BC0300BFA06A012806D1AB
:1033D000A069012803D0A86B40F48030A86320685E
:1033E00004F012F8206803F099FB00BF002084F875
:1033F000BC0300BF00BFE3E710B504460020054949
:10340000087005A0FDF796F8D4F8040402F097FEC2
:1034100010BD0000440300204465766963652049BF
:103420006E2073757370656E64206D6F64652E0D0C
:103430000A00000008B5012003490862034800683B
:10344000009000BF08BD000000000E420070004068
:10345000F8B5044600250026207800F0010020B9C8
:10346000207800F0040004282FD100205B498866F2
:10347000FFF7BAF8054606E0FFF7B6F8401B02284A
:1034800001D90320F8BD56480068C0F3C060002889
:10349000F2D160688101207A41EA0070504984319C
:1034A000086001204D498866FFF79EF8054606E052
:1034B000FFF79AF8401B022801D90320E2E74848A9
:1034C0000068C0F3C0600028F2D0207800F002004D
:1034D00002287DD100BF00200090414840300068A4
:1034E00040F080503E49403108600846006800F0D6
:1034F0008050009000BF00BF3A48006840F48070E0
:1035000038490860FFF770F8054606E0FFF76CF8E9
:10351000401B022801D90320B4E73248006800F4B8
:1035200080700028F2D02E487030006800F4407699
:103530004EB3A08900F44070B04224D028487030C7
:10354000006820F4407601202749086000200860C8
:10355000234870300660006800F0010098B1FFF762
:1035600043F8054608E0FFF73FF8401B41F2883179
:10357000884201D9032085E7194870300068C0F3FC
:1035800040000028EFD000BFA08900F44070B0F5E3
:10359000407F0CD112480830006820F4F810134A1C
:1035A000E168114008430E490831086007E00C4803
:1035B0000830006820F4F81009490831086008480C
:1035C00070300068A189C1F30B010843044900E091
:1035D00002E07031086000BF002053E7000047425E
:1035E0000038024000700040400E4742FFFCFF0FD1
:1035F00070B504460D460CB9012070BD58480068EE
:1036000000F00700A84209D255490D70084600682D
:1036100000F00700A84201D00120EEE7207800F07A
:10362000020002281DD1207800F00400042805D1F2
:103630004C48006840F4E0504A490860207800F0A7
:103640000800082805D14748006840F46040454913
:1036500008604448006820F0F000A1680843414930
:103660000860207800F00100A8B36068012807D145
:103670003C4808380068C0F34040B8B90120BCE7B6
:103680006068022802D06068032807D135480838EE
:103690000068C0F3406048B90120AEE731480838FF
:1036A0000068C0F3400008B90120A6E72D48006873
:1036B00020F00300616808432A490860FEF794FF80
:1036C000064609E0FEF790FF801B41F288318842F0
:1036D00002D9032091E707E02248006800F00C00BF
:1036E0006168B0EB810FEDD11D48006800F0070064
:1036F000A84209D91A490D700846006800F0070071
:10370000A84201D0012078E7207800F004000428C6
:1037100007D11448006820F4E050E16808431149DB
:103720000860207800F00800082808D10D480068DB
:1037300020F46040216940EAC1000A49086000F0B5
:103740003FF808490968C1F30311074A515CC840B2
:103750000649086006480068FEF770FF00204CE745
:10376000003C02400838024016B203080400002062
:10377000600000200148006870470000040000203D
:1037800000B5FFF7F7FF04490968C1F38221034A36
:10379000515CC84000BD00000838024026B2030852
:1037A00000B5FFF7E7FF04490968C1F34231034A56
:1037B000515CC84000BD00000838024026B2030832
:1037C0002DE9F047002400250026A1462548006881
:1037D00000F00C0020B1042805D008283AD105E0FB
:1037E000DFF8849039E0DFF8849036E01D48001F50
:1037F000006800F03F041B48001F006800F48000D0
:1038000078B11A481749091F0968C1F38811A0FB4C
:1038100001700146224600233846FCF702FE0546A9
:103820000EE011480F49091F0968C1F38811A0FB78
:1038300001700146224600233846FCF7F2FD05469A
:103840000848001F0068C0F30140401C4600B5FB5B
:10385000F6F902E0DFF8109000BF00BF4846BDE86F
:10386000F0870000083802400024F40000127A00BB
:10387000F8B504460CB90120F8BD207800F001002D
:10388000002874D0F948006800F00C0004280DD01E
:10389000F648006800F00C00082813D1F348001F18
:1038A000006800F48000B0F5800F0BD1EF480838B5
:1038B0000068C0F34040002859D06068002856D105
:1038C0000120D9E700BF6068B0F5803F08D1E74824
:1038D0000838006840F48030E449083908601EE088
:1038E0006068B0F5A02F0DD1E0480838006840F4BA
:1038F0008020DE49083908600846006840F48030BE
:1039000008600CE0D9480838006820F48030D749B6
:10391000083908600846006820F48020086000BF6D
:10392000606890B1FEF760FE054606E0FEF75CFEBB
:10393000401B642801D903209EE7CC480838006862
:10394000C0F340400028F1D011E0FEF74DFE0546DF
:1039500006E0FEF749FE401B642801D903208BE7EF
:10396000C24808380068C0F340400028F1D12078F0
:1039700000F0020002285FD1BC48006800F00C0093
:1039800058B1BA48006800F00C0008281CD1B748AC
:10399000001F006800F48000B0B9B448083800681F
:1039A000C0F3400020B1E068012801D0012063E7A6
:1039B000AE480838006820F0F800216940EAC100EC
:1039C000AA490839086037E0E06800B30120A84937
:1039D0000860FEF709FE054606E0FEF705FE401BFF
:1039E000022801D9032047E7A04808380068C0F33F
:1039F00040000028F1D09D480838006820F0F80009
:103A0000216940EAC10099490839086014E00020A2
:103A100097490860FEF7E8FD054606E0FEF7E4FD7D
:103A2000401B022801D9032026E790480838006887
:103A3000C0F340000028F1D1207800F008000828E9
:103A40002CD16069A8B101208A490860FEF7CCFD3D
:103A5000054606E0FEF7C8FD401B022801D90320F9
:103A60000AE782486C300068C0F340000028F1D0BB
:103A700014E000207F490860FEF7B6FD054606E029
:103A8000FEF7B2FD401B022801D90320F4E6774877
:103A90006C300068C0F340000028F1D1207800F0BD
:103AA0000400042870D1002770483830006800F006
:103AB000805090B900BF002000906C4838300068FA
:103AC00040F080506949383108600846006800F0CD
:103AD0008050009000BF00BF01276748006800F4D5
:103AE0008070B0B96448006840F480706249086032
:103AF000FEF77AFD054606E0FEF776FD401B02283C
:103B000001D90320B8E65C48006800F48070002802
:103B1000F2D000BFA068012808D15448683000687E
:103B200040F001005149683108601DE0A068052897
:103B30000DD14E486830006840F004004B496831B0
:103B400008600846006840F0010008600CE0474843
:103B50006830006820F00100444968310860084678
:103B6000006820F00400086000BFA068A8B1FEF75C
:103B70003BFD054609E0FEF737FD401B41F2883169
:103B8000884202D9032077E626E03848683000688A
:103B9000C0F340000028EED013E0FEF725FD0546F7
:103BA00008E0FEF721FD401B41F28831884201D92F
:103BB000032061E62D4868300068C0F3400000280B
:103BC000EFD1012F07D129483830006820F080500C
:103BD00026493831086000BFA069002845D0234835
:103BE000006800F00C0008285DD0A069022845D1CB
:103BF00000201F490866FEF7F7FC054606E0FEF7C1
:103C0000F3FC401B022801D9032035E61748083889
:103C10000068C0F340600028F1D1D4E907010843EF
:103C2000616A40EA81110122A06AC2EB500041EAB8
:103C300000412C20005D41EA00600C49091F08602A
:103C400001200B490866FEF7CFFC054606E0FEF7AB
:103C5000CBFC401B022801D903200DE6034808389D
:103C60000068C0F340600028F1D049E00838024005
:103C700000004742800E474200700040002021496A
:103C80000866FEF7B1FC054606E0FEF7ADFC401BFA
:103C9000022801D90320EFE51B480068C0F340600B
:103CA0000028F2D12CE0A069012800D1E4E51648F3
:103CB000001D0668A069012820D006F48001E06993
:103CC00081421BD106F03F01206A814216D147F69E
:103CD000C0703040616AB0EB811F0FD106F44031F3
:103CE0000122A06AC2EB5000B1EB004F06D106F0F2
:103CF00070612C20005DB1EB006F01D00120BBE5AD
:103D00000020B9E5000047420038024070470246F3
:103D10000023106800F1500303EB8103186870471B
:103D200010B50023046804F1500303EB81031A600B
:103D300010BD000010B5044600BF4FF4806102487A
:103D4000FEF73CFC00BF10BD0014024010B5044655
:103D50002068C068C0F3802050B12046FFF7EAFF1A
:103D60002068C06800F0800060F490602168C8603E
:103D70004FF48000024908600120607710BD000008
:103D8000143C014010B5044601A0FCF7D3FB10BD64
:103D9000414C41524D2041210D0A000010B504460E
:103DA00020688068C0F3003078B12068C068C0F334
:103DB000002050B12046FFF7E5FF2068C06800F002
:103DC000800060F4C0702168C86020688068C0F31B
:103DD000403078B12068C068C0F3402050B1204620
:103DE000FFF794FF2068C06800F0800060F4207046
:103DF0002168C8604FF400300249086001206077F4
:103E000010BD0000143C014070B505460B46164637
:103E10000024286840680E4900EA0104200CD8708C
:103E2000C4F30420587004F03F009870C4F342308B
:103E300018705EB9D87801F07DF8D870587801F024
:103E400079F85870987801F075F89870002070BD76
:103E50003FFFFF0070B504460B461646002520685C
:103E6000806A586020680069C0F30E00986020687E
:103E700000680F4900EA0105C5F305401870C5F355
:103E80000620587005F07F00987005F48000000C43
:103E9000D8705EB9187801F04DF81870587801F0B4
:103EA00049F85870987801F045F89870002070BD76
:103EB0007F7F7F0010B504460CB9012010BD607FE4
:103EC00020B900202077204600F060F802206077BB
:103ED00000BFCA202168486253202168486200BFA1
:103EE000204601F03FF840B100BFFF202168486242
:103EF00000BF042060770120E0E720688068224945
:103F00000840216888602169606808436169084346
:103F1000216889680843216888602168E068086131
:103F200020680169208941EA004021680861206811
:103F3000C06820F080002168C8602068806800F0B8
:103F4000200060B9204600F09DF940B100BFFF207D
:103F50002168486200BF042060770120AEE7206836
:103F6000006C20F48020216808642068006CA1693E
:103F700008432168086400BFFF202168486200BF31
:103F800001206077002099E7BFFF8FFF30B591B027
:103F90000546C82401202D490860FFF74BFA00BFF1
:103FA000002000902A48006840F0805028490860AE
:103FB0000846006800F08050009000BF00BF01205C
:103FC0002249086022483030006840F00100204952
:103FD0003031086004E0601E84B2052008F0C6F9A4
:103FE00034B11B483030006800F002000028F2D0E5
:103FF000ACB90820059001200A9000200B9005A87C
:10400000FFF736FC022001900002049001A8FFF7A0
:104010001FFA45F25101002030F0E0FE14E00420C8
:10402000059000200B900120079005A8FFF720FCC9
:1040300002200190C001049001A8FFF709FA45F29F
:104040005001002030F0CAFE11B030BD3C0E474296
:10405000403802402DE9F04104460D46164600273F
:1040600000BF207F012802D10220BDE8F08101209D
:10407000207700BF022060774EB9687800F010000A
:10408000102804D1687800F0EF000A30687086B913
:10409000E87800F05AFF0304687800F056FF43EA1E
:1040A0000023A87800F051FF0343287843EA403703
:1040B00009E0E8780004697840EA0120A97808431B
:1040C000297840EA413700BFCA202168486253205E
:1040D0002168486200BF204600F044FF60B100BF85
:1040E000FF202168486200BF0420607700BF0020E5
:1040F000207700BF0120B8E71648384021684860A3
:104100002068C06820F080002168C860206880684E
:1041100000F0200080B9204600F0B4F860B100BF84
:10412000FF202168486200BF0420607700BF0020A4
:10413000207700BF012098E700BFFF202168486278
:1041400000BF0120607700BF0020207700BF00BFC4
:104150008BE700003FFFFF002DE9F04104460D46CC
:104160001646002700BF207F012802D10220BDE8AB
:10417000F0810120207700BF02206077CEB920684F
:10418000806800F0400000B102E00020E87000BF4D
:10419000287800F0DAFE0304687800F0D6FE43EADF
:1041A0000023A87800F0D1FE0343E87843EA0047F3
:1041B00012E02068806800F0400000B102E00020BA
:1041C000E87000BF28780004697840EA0120A978E7
:1041D0000843E97840EA014700BFCA2021684862E5
:1041E00053202168486200BF204600F0BBFE60B14A
:1041F00000BFFF202168486200BF0420607700BF35
:104200000020207700BF0120B1E71D483840216819
:1042100008602068806820F4802021688860D5E9E3
:104220000301084321688968084321688860206881
:10423000C06820F080002168C8602068806800F0B5
:10424000200080B9204600F01DF860B100BFFF20BB
:104250002168486200BF0420607700BF00202077FB
:1042600000BF012083E700BFFF202168486200BF34
:104270000120607700BF0020207700BF00BF76E7F5
:104280007F7F7F0070B5044600252068C06820F05D
:10429000A0002168C860FEF7A7F9054607E0FEF711
:1042A000A3F9401BB0F57A7F01D9032070BD2068C7
:1042B000C06800F020000028F1D00020F6E770B5BB
:1042C00004460E4615460CB9012070BD94F849000D
:1042D00028B9002084F84800204600F01DF804F1B9
:1042E00008012068FDF75AFF3146A2682068FDF7F3
:1042F00083FF2946236BD4E90102FDF72BFFA16858
:10430000206850F8210040F00100A268216841F8BF
:1043100022000020D9E7000010B586B0044600BF97
:10432000002000902248006840F001002049086009
:104330000846006800F00100009000BF00BF00BF09
:10434000002000901A480838006840F0080018491A
:10435000083908600846006800F00800009000BFB7
:1043600000BF00BF002000900846006840F0100029
:1043700008600846006800F01000009000BF00BF11
:104380004CF2037001900220029001200390022061
:1043900004900C20059001A90648FEF705F84FF699
:1043A0008070019001A90448FDF7FEFF06B010BD22
:1043B00038380240000C024000100240042808D1A6
:1043C0004FF0E021096941F004014FF0E022116152
:1043D00007E04FF0E021096921F004014FF0E022ED
:1043E0001161704770B504462546681EB0F1807FA4
:1043F00001D301200FE0681E4FF0E02148610F213A
:104400004FF0FF3003F08CF900204FF0E02188617D
:1044100007200861002070BD70477047704710B5D5
:10442000044620680069C0F34000D8B12068C06825
:10443000C0F34000B0B16FF00200216808610120B4
:1044400020772068806900F0030018B12046FFF74C
:10445000E5FF05E0204600F0ADF8204600F0ABF89F
:104460000020207720680069C0F38000D8B1206860
:10447000C068C0F38000B0B16FF00400216808612B
:10448000022020772068806900F4407018B120462F
:10449000FFF7C4FF05E0204600F08CF8204600F04E
:1044A0008AF80020207720680069C0F3C000D8B1E6
:1044B0002068C068C0F3C000B0B16FF00800216888
:1044C0000861042020772068C06900F0030018B15B
:1044D0002046FFF7A3FF05E0204600F06BF82046DA
:1044E00000F069F80020207720680069C0F3001010
:1044F000D8B12068C068C0F30010B0B16FF01000F0
:1045000021680861082020772068C06900F44070A5
:1045100018B12046FFF782FF05E0204600F04AF878
:10452000204600F048F8002020772068006900F05D
:10453000010058B12068C06800F0010030B16FF090
:10454000010021680861204600F036F82068006903
:10455000C0F3C01058B12068C068C0F3C01030B1BB
:104560006FF08000216808612046FFF755FF206842
:104570000069C0F3801058B12068C068C0F3801093
:1045800030B16FF0400021680861204600F015F856
:1045900020680069C0F3401058B12068C068C0F3BB
:1045A000401030B16FF02000216808612046FFF70D
:1045B00034FF10BD704770477047704770477047B1
:1045C0002DE9F84F0446206805682068C668206811
:1045D00047694FF00009CA4605F00F09B9F1000F0D
:1045E0000AD105F0200038B106F0200020B12046A5
:1045F00000F04BFDBDE8F88FB9F1000F72D007F065
:10460000010018B906F4907000286BD005F0010085
:1046100030B106F4807018B1206C40F001002064C5
:1046200005F0040030B107F0010018B1206C40F033
:104630000200206405F0020030B107F0010018B15B
:10464000206C40F00400206405F0080048B106F03A
:10465000200010B907F0010018B1206C40F00800EC
:104660002064206C70B305F0200028B106F0200013
:1046700010B1204600F009FD20684069C0F3801A9F
:10468000206C00F0080010B9BAF1000F23D02046CA
:1046900000F0D0FC2068406900F04000402816D1AE
:1046A0002068406920F0400021684861A06B50B14B
:1046B0005648A16B0865A06BFDF74DFE10B1A06BCD
:1046C000016D88470CE02046FFF779FF08E020469F
:1046D000FFF775FF04E02046FFF771FF002020641C
:1046E00088E7FFE7206B012879D105F0100000284A
:1046F00075D006F01000002871D000BF0020009097
:1047000020680068009020684068009000BF00BFEB
:104710002068406900F04000402839D1A06B006853
:1047200040681FFA80F8B8F1000F30D0A08D4045E6
:104730002DDDA4F82E80A06BC069B0F5807F1FD05E
:104740002068C06820F480702168C86020684069D3
:1047500020F00100216848612068406920F0400095
:1047600021684861202084F83E00002020632068F2
:10477000C06820F010002168C860A06BFDF796FDAE
:10478000A08DE28D801A81B22046FFF717FF31E736
:10479000A08DE18D401A1FFA80F8E08DE8B1B8F1E4
:1047A000000F1AD02068C06820F490702168C8609B
:1047B0002068406920F0010021684861202084F8C9
:1047C0003E00002020632068C06820F010002168AF
:1047D000C86041462046FFF7F1FE0BE7FFE705F012
:1047E000800030B106F0800018B1204600F0E5FDF1
:1047F00000E705F0400030B106F0400018B1204657
:1048000000F033FCF6E600BFF4E60000215000089B
:1048100010B504460CB9012010BDA06900B100E03C
:1048200000BF94F83D0028B9002084F83C002046E1
:1048300000F028F8242084F83D002068C06820F4A7
:1048400000502168C860204600F07EFC20680069A6
:1048500020F49040216808612068406920F02A0017
:10486000216848612068C06840F400502168C86031
:1048700000202064202084F83D0084F83E000020C1
:10488000CAE7000010B586B004462E492068884269
:1048900055D100BF00BF002000902B48006840F0B9
:1048A0001000294908600846006800F010000090D8
:1048B00000BF00BF00BF00BF00BF00200090224823
:1048C0001438006840F001001F4914390860084698
:1048D000006800F00100009000BF00BF00BF00BFF3
:1048E00000BF002000900846006840F0010008600A
:1048F0000846006800F00100009000BF00BF00BF44
:10490000481501900220029001200390022004909B
:104910000720059001A90D48FDF746FD4FF4806082
:1049200001900720059001A90848FDF73DFD2520CD
:10493000FDF7ABFE032211462520FDF7B6FE06B0BB
:1049400010BD000000100140443802400000024049
:1049500070B504460D46164694F83E00202816D140
:1049600005B10EB9012070BD00BF94F83C000128CC
:1049700001D10220F7E7012084F83C0000BF0020AD
:10498000206332462946204600F0F4FCEBE7022083
:10499000E9E7000010B504462049206888423BD171
:1049A0001F48008800F4004088BB1D48008800F4C0
:1049B000804070B11B4800780A2803D000201849B5
:1049C000088024E01648008840F40040144908801C
:1049D0001DE0144800780D2806D11148008840F4E5
:1049E00080400F49088012E00E4800780C49098881
:1049F000C1F30D010C4A505409480088401C084975
:104A0000088008460088C72801DD002008800122B0
:104A100004490648FFF79CFF10BD0000001001404C
:104A2000580000205A0000204008002008090020FB
:104A30007047000010B52AF064FA044620F058FBD5
:104A40000F4908600F490E48006821F0FAF9002369
:104A50001A4609210A48006824F0F6F90848006857
:104A600029F03CFB002029F045FF40F6B83007F064
:104A70007DFC0348006824F055FE00F055F810BD99
:104A8000200300209015050800BFFEE730B50B4657
:104A9000002100BF16E00A24B4EB107F05D93024B2
:104AA00004EB107403F8114005E0412404EB10748A
:104AB0000A3C03F81140000100254C00641C1D5500
:104AC0004C1CE1B29142E6DB30BD00001CB505484C
:104AD000042100238022CDE9001003A1054835F010
:104AE0008BFE1CBD040100206C65645F7461736BF8
:104AF00000000000B9C401081CB5064803210023CA
:104B00004FF48062CDE9001003A1064835F074FE31
:104B10001CBD0000080100206C76676C5F74617337
:104B20006B000000D12703082DE9F843404D2AF01F
:104B3000E8F9814625F064FC0C2190FBF1F004B209
:104B40002AF0DFF9064621462DF01EFE394908609D
:104B50002AF0D7F9814625F053FC04462AF0D1F912
:104B6000814627F0E8F9064622463146314800687A
:104B700029F03BF82F48046800231A4609212046F3
:104B800024F062F900BF002201212A48006829F0C0
:104B90008EF929481AF0A3FE00220146009025480C
:104BA000006829F068F9002264212248006829F091
:104BB00072F9204800682DF004FE04461E2128F0FA
:104BC00004FF1EA11B4800682DF082FD1C490860EF
:104BD000002229461A48006829F0FAF915480068A9
:104BE0002DF0E8FD07466FF07F401AF078FE0022B6
:104BF00001460090384629F021F9384619F07CF931
:104C000080461E221146404628F0EFFF00231A4638
:104C10001946404624F018F90821404624F066F869
:104C2000002307220749404624F018F8BDE8F8831E
:104C3000509C0408180300208A8A8A0000000000A3
:104C40001C0300203BAA000800BFFEE770470000DD
:104C500010B50248FDF756FF10BD000074E00120BA
:104C60002DE9F04704460D4626683746D6F84080C1
:104C700007F5306000EB4510D0F8089010488045EB
:104C80000BD909F40040B0F5004F06D14FF40041B4
:104C900007F5306000EB451081602046FEF77EFB93
:104CA0000748804508D92069012805D104F57172AB
:104CB0000121206802F03AF90020BDE8F0870000E9
:104CC0000A30544F2DE9F04705460C46D5F80080D0
:104CD0004646D8F8409006F5306000EB44108768EF
:104CE0002869012873D107F0080008280FD152481D
:104CF00081450BD907F40040B0F5004F06D14FF4C1
:104D0000004106F5306000EB4410816091E007F04F
:104D10002000202806D1202106F5306000EB441049
:104D2000816086E007F0280000280ED142488145C6
:104D30000CD907F40040B0F5004F07D14FF4004103
:104D400006F5306000EB4410816072E0C4EBC401F2
:104D500005F5FE7000EB8100816806F5306000EB20
:104D600044100069C0F31200091AC4EBC40205F52F
:104D7000FE7000EB82008161C4EBC40105F5FE709A
:104D800000EB8100C4EBC402C16805F5FE7000EBC6
:104D9000820080680144C4EBC40205F5FE7000EB9C
:104DA0008200C1606CB9C4EBC40105F5FE7000EB74
:104DB0008100406928B905F571720121286802F067
:104DC000B5F8E1B22846FDF70DFD32E0FFE71B48DC
:104DD00081451BD107F40040B0F5004F07D14FF4D7
:104DE000004106F5306000EB4410816021E007F0DF
:104DF0002000202805D1202106F5306000EB44106A
:104E00008160E1B22846FDF7EDFC12E06CB9C4EB1D
:104E1000C40105F5FE7000EB8100406928B905F575
:104E200071720021286802F081F8E1B22846FDF78E
:104E3000D9FC0020BDE8F0870A30544F0A31544FA6
:104E40002DE9F84F07460E46D7F80090C846C6EB46
:104E5000C60107F13C0000EB8104D4E9051088424B
:104E600002D90120BDE8F88FD4E90501451AA068F0
:104E7000A84200D2A568E81C4FEA900A17E0D4E9DE
:104E80000501451AA068A84200D2A568E81C4FEAAF
:104E9000900A387CABB2F2B200904846E16802F06A
:104EA000FFFBE0682844E060A0692844A06108F5A1
:104EB000106000EB4610806980B2504506D3D4E9FB
:104EC0000510884202D260690028D8D1D4E90501D2
:104ED00088420ED806F00F01012000FA01FB40F6CF
:104EE000340050F8080020EA0B0040F6340141F885
:104EF00008000020B6E700001CB505480421002387
:104F00008022CDE9001003A1054835F075FC1CBDD9
:104F1000180100205254435F7461736B000000005D
:104F2000B54F000810B50248FEF738FF10BD00006D
:104F300020080020014600BF080900EB8000420065
:104F400001F00F001044C0B270470146002203E098
:104F5000521CA1F10A00C1B20A29F9D2100741EA94
:104F60001060704770B5044600252068C06800F0E6
:104F70004000A0B9681E2168C860FDF735FB0546F2
:104F800007E0FDF731FB401BB0F57A7F01D9032024
:104F900070BD2068C06800F040000028F1D00020FB
:104FA000F6E7000010B50248FEF7D0FE10BD000085
:104FB0002008002000BF09E005482FF071FE0448DA
:104FC0002FF05AFE4FF4FA7034F03EFEF4E7000082
:104FD0001C01002030B501460A461378521C147893
:104FE00043EA042030BD10B5FDF704FB35F034FC76
:104FF000012801D035F0FAF910BD0000034800681F
:1050000040F47000014908607047000088ED00E03E
:1050100010B50248FFF703FA10BD0000D8070020C2
:1050200070B50546AC6B0020E085E0842046FFF7B4
:10503000C6FA70BD0168C96821F490710268D16038
:105040000168496921F0010102685161016B012980
:1050500005D10168C96821F010010268D1602021E2
:1050600080F83E1000210163704710B504462068A7
:10507000C06820F040002168C860202084F83D000E
:105080002046FFF7D5FC002010BD70B5044694F80B
:105090003E00222856D1A068B0F5805F0CD120696F
:1050A00050B90025A66A20684068C0F30800308027
:1050B000A06A801CA06215E0A56A0026A068B0F571
:1050C000805F03D0A06828B9206918B920684068BB
:1050D000287004E02068406800F07F002870A06A13
:1050E000401CA062E08D401E80B2E08540BB20687D
:1050F000C06820F020002168C8602068C06820F4E3
:1051000080702168C8602068406920F00100216833
:105110004861202084F83E00206B01280AD12068D5
:10512000C06820F010002168C860A18D2046FFF7FC
:1051300045FA02E02046FFF72DFC0020206370BDF9
:105140000020FCE70220FAE72DE9F84F044620682A
:10515000006920F44050E168084321680861216932
:10516000A068084361690843E1690843009020682A
:10517000C06849F20C618843009908432168C860FF
:105180002068406920F44070A169084321684861A3
:1051900076492068884203D075492068884203D147
:1051A000FEF7FEFA814602E0FEF7EAFA8146E06980
:1051B000B0F5004F6CD102206168A0FB015003469E
:1051C0001920A9FB007001462A463846FBF729F949
:1051D0006421B0FBF1F04FEA001A02206168A0FBE5
:1051E00001510B461920A9FB00712A463846FBF7EE
:1051F00018F9834602206168A0FB0150034619207C
:10520000A9FB00712A463846FBF70BF96421B0FB75
:10521000F1F000EBC00101EB0010ABEB800032219C
:1052200001EBC0006421B0FBF1F000F0F8000AEBE4
:10523000400A02206168A0FB015003461920A9FB27
:10524000007001462A463846FBF7EBF883460220F9
:105250006168A0FB015003461920A9FB00712A4692
:105260003846FBF7DEF86421B0FBF1F000EBC0013B
:1052700001EB0010ABEB8000322101EBC000642198
:10528000B0FBF1F000F007005044216888606AE04C
:1052900004206168A0FB015003461920A9FB00709F
:1052A00001462A463846FBF7BCF88246042061686E
:1052B000A0FB015003461920A9FB007001462A46B5
:1052C0003846FBF7AEF86421B0FBF1F000EBC0010B
:1052D00001EB0010AAEB8000322101EB00106421E9
:1052E000B0FBF1F000F0F00A04206168A0FB01704F
:1052F00003461920A9FB00513A462846FBF791F8CE
:105300006421B0FBF1F00AEB001A04206168A0FBF5
:1053100001510B461920A9FB00712A463846FBF7BC
:1053200080F8834604206168A0FB015003461920E1
:10533000A9FB007001462A463846FBF772F8642143
:10534000B0FBF1F000EBC00101EB0010ABEB800013
:10535000322101EB00106421B0FBF1F000F00F00EE
:10536000504421688860BDE8F88F000000100140BB
:105370000014014010B5034699629A85DA85002031
:105380001864222083F83E0000BF002083F83C0010
:1053900000BF1868C06840F480701C68E06018683E
:1053A000406940F001001C6860611868C06840F006
:1053B00020001C68E060002010BD014691F83D000F
:1053C000212828D18868B0F5805F0BD1086948B9D9
:1053D0000A6A1088C0F308000B685860086A801CCD
:1053E000086205E00B6A581C086218780B68586060
:1053F000C88C401E80B2C88458B90868C06820F0C4
:1054000080000B68D8600868C06840F040000B68F6
:10541000D860002070470220FCE7000010B5024869
:10542000FFF7CEF810BD0000080900202DE9F0417B
:1054300004460D46D4F8C472D4F8BC0210B9032057
:10544000BDE8F081D4F8BC6205EB850104F11400DD
:1054500000EB8100406808B305EB850104F11400FE
:1054600000EB8100C5EBC502416807F13C0000EB91
:1054700082008068B1FBF0F200FB121070B90021CD
:1054800005EB850204F1140000EB8200416000236B
:105490001A462946204600F05CFE0FE00020C6F8C0
:1054A0001402D4F8C002006940B1D6F80802D4F85A
:1054B000C0122A460B6906F5047198470020BFE721
:1054C00070B504460E46D4F8BC52D4F8BC0208B9F4
:1054D000032070BD3146204600F0D4FCC5F80C0214
:1054E000D5F80402D4F8C012CA6805F503719047D4
:1054F0000020EEE770B504460D468121204600F0FD
:10550000ECFB002121870121204600F0E6FB002171
:10551000A4F878118221204600F0DFFB0021A4F8D6
:105520004C10A4F84E10D4F8BC0258B1D4F8C012F4
:10553000486880470020D4F8BC122DF0A1FE00205E
:10554000C4F8BC02002070BD70B50546D5F8BC4259
:105550000CB9032070BDD5F8C00278B194F80002F0
:10556000FF280BD094F8012294F80002D5F8C0125D
:105570008B6821469847FF2084F800020020E9E765
:1055800001460A2008800148704700009803002067
:105590000146432008800148704700002004002095
:1055A000014643200880014870470000DC030020CA
:1055B0000146432008800148704700006404002031
:1055C00070B504460E464FF4077100202DF06AFEB8
:1055D000054625B90020C4F8BC02022070BDC4F8FD
:1055E000BC52207CA0B94FF40073022281212046D6
:1055F00000F0CCFC012121874B020222204600F062
:10560000C5FC0121A4F878111021A4F84E1012E075
:10561000402302228121204600F0B8FC012121878D
:1056200040230222204600F0B1FC0121A4F87811A9
:105630001021A4F84E10082303228221204600F0F6
:10564000A5FC0121A4F84C10D4F8C01208688047CA
:105650000020C5F81402C5F81802207C40B94FF4A8
:10566000007301212046D5F8042200F09FFC06E0DB
:10567000402301212046D5F8042200F097FC0020A9
:10568000ACE770B50446D4F8BC52D4F8BC0208B9F3
:10569000032070BD207C40B94FF4007301212046E7
:1056A000D5F8042200F082FC06E0402301212046C8
:1056B000D5F8042200F07AFC0020EAE7024609B996
:1056C00003207047C2F8C0120020FAE702460B46DA
:1056D000D2F8BC1209B903207047C1F80432002087
:1056E000FAE710B503460C46D3F8BC1209B90320FB
:1056F00010BDC1F80842C1F810220020F8E72DE9DA
:10570000FC4105460C46D5F8BC6200200190009093
:10571000804616B90320BDE8FC81207800F06000C7
:1057200078B320286FD1E08818B3207800F080008B
:1057300098B1E2886078D5F8C0128B6831469847F6
:10574000E088072801D9072000E0E08807463A46AC
:105750003146284600F0F1F812E0607886F8000241
:10576000A07986F80102E2883146284600F0C4F8A4
:1057700006E06078D5F8C01200228B682146984771
:1057800048E0FFE7607830B1012831D00A2813D013
:105790000B282ED121E095F89C02032805D1022286
:1057A0006946284600F0C9F805E02146284600F081
:1057B00097F84FF0030823E095F89C02032805D1E1
:1057C000012201A9284600F0B8F805E02146284644
:1057D00000F086F84FF0030812E095F89C020328C9
:1057E00005D02146284600F07BF84FF0030807E07B
:1057F00006E02146284600F073F84FF0030800BF8A
:1058000000BF07E0FFE72146284600F069F84FF0A7
:10581000030800BF00BF40467DE770B50546D5F8D8
:10582000BC420126D5F8BC0208B9032070BDD4F8EB
:10583000140270B90120C4F81402D4F81012E962FD
:1058400081212846D4F81032D4F8082200F081FCD7
:1058500000263046EAE770B504460D46D4F8B80293
:1058600028B1D4F8B8022946426820469047002063
:1058700070BD70B504460D4694F89C02012804D012
:10588000022803D003280CD101E000BF00BF6888C4
:10589000012805D10020C4F8A402204600F05EF8DB
:1058A00004E02946204600F01BF800BF00BF70BD91
:1058B00070B506460C4615462B462246002130465A
:1058C00000F074FB002070BD70B506460C4615460E
:1058D0002B4622460021304600F03BFC002070BDE4
:1058E00070B504460D468021204600F016FC0021CC
:1058F000204600F012FC70BD70B504460E461546F9
:105900000320C4F894024FF4AC700551001D0551FA
:105910002B4632460021204600F048FB002070BD97
:1059200010B504460520C4F8940200231A4619460F
:10593000204600F03BFB002010BD70B504460E462B
:1059400015460220C4F89402A561E5612B46324653
:105950000021204600F0FDFB002070BD10B504467C
:105960000420C4F8940200231A461946204600F089
:10597000F0FB002010BD70B504460D46E8880128F4
:1059800004D029462046FFF7ABFF1EE094F89C02A6
:10599000012804D0022803D0032810D109E000BF59
:1059A0000020A060012204F108012046FFF7C5FF96
:1059B0000AE00122211D2046FFF7BFFF04E029462F
:1059C0002046FFF78DFF00BF00BF70BDF8B504464D
:1059D0000E4600200090002700257088001208283D
:1059E00075D2DFE800F0C7040C20C7C7A5B5207C3E
:1059F000D4F8B4120A68694690470746C1E0207C93
:105A000040B9D4F8B802816A684688470746022040
:105A1000787007E0D4F8B802C16A6846884707463C
:105A200002207870ADE0B078062878D2DFE800F088
:105A30000316293C5063D4F8B402406838B1207C86
:105A4000D4F8B4124A6869469047074605E03146E3
:105A50002046FFF745FF681CC5B267E0D4F8B402E2
:105A6000806838B1207CD4F8B4128A6869469047BF
:105A7000074605E031462046FFF732FF681CC5B2F5
:105A800054E0D4F8B402C06838B1207CD4F8B41221
:105A9000CA6869469047074605E031462046FFF749
:105AA0001FFF681CC5B241E0D4F8B402006938B1E8
:105AB000207CD4F8B4120A6969469047074605E08D
:105AC00031462046FFF70CFF681CC5B22EE051E0BE
:105AD000D4F8B402406938B1207CD4F8B4124A69D1
